{
  "contractName": "Dex",
  "abi": [
    {
      "anonymous": false,
      "inputs": [
        {
          "indexed": true,
          "internalType": "address",
          "name": "previousOwner",
          "type": "address"
        },
        {
          "indexed": true,
          "internalType": "address",
          "name": "newOwner",
          "type": "address"
        }
      ],
      "name": "OwnershipTransferred",
      "type": "event"
    },
    {
      "inputs": [
        {
          "internalType": "bytes32",
          "name": "ticker",
          "type": "bytes32"
        },
        {
          "internalType": "address",
          "name": "tokenAddress",
          "type": "address"
        }
      ],
      "name": "addToken",
      "outputs": [],
      "stateMutability": "nonpayable",
      "type": "function"
    },
    {
      "inputs": [
        {
          "internalType": "address",
          "name": "",
          "type": "address"
        },
        {
          "internalType": "bytes32",
          "name": "",
          "type": "bytes32"
        }
      ],
      "name": "balances",
      "outputs": [
        {
          "internalType": "uint256",
          "name": "",
          "type": "uint256"
        }
      ],
      "stateMutability": "view",
      "type": "function",
      "constant": true
    },
    {
      "inputs": [
        {
          "internalType": "uint256",
          "name": "amount",
          "type": "uint256"
        },
        {
          "internalType": "bytes32",
          "name": "ticker",
          "type": "bytes32"
        }
      ],
      "name": "deposit",
      "outputs": [],
      "stateMutability": "nonpayable",
      "type": "function"
    },
    {
      "inputs": [],
      "name": "depositEth",
      "outputs": [],
      "stateMutability": "payable",
      "type": "function",
      "payable": true
    },
    {
      "inputs": [],
      "name": "nextOrderId",
      "outputs": [
        {
          "internalType": "uint256",
          "name": "",
          "type": "uint256"
        }
      ],
      "stateMutability": "view",
      "type": "function",
      "constant": true
    },
    {
      "inputs": [
        {
          "internalType": "bytes32",
          "name": "",
          "type": "bytes32"
        },
        {
          "internalType": "uint256",
          "name": "",
          "type": "uint256"
        },
        {
          "internalType": "uint256",
          "name": "",
          "type": "uint256"
        }
      ],
      "name": "orderBook",
      "outputs": [
        {
          "internalType": "uint256",
          "name": "id",
          "type": "uint256"
        },
        {
          "internalType": "address",
          "name": "trader",
          "type": "address"
        },
        {
          "internalType": "enum Dex.Side",
          "name": "side",
          "type": "uint8"
        },
        {
          "internalType": "bytes32",
          "name": "ticker",
          "type": "bytes32"
        },
        {
          "internalType": "uint256",
          "name": "amount",
          "type": "uint256"
        },
        {
          "internalType": "uint256",
          "name": "price",
          "type": "uint256"
        },
        {
          "internalType": "uint256",
          "name": "filled",
          "type": "uint256"
        }
      ],
      "stateMutability": "view",
      "type": "function",
      "constant": true
    },
    {
      "inputs": [],
      "name": "owner",
      "outputs": [
        {
          "internalType": "address",
          "name": "",
          "type": "address"
        }
      ],
      "stateMutability": "view",
      "type": "function",
      "constant": true
    },
    {
      "inputs": [],
      "name": "renounceOwnership",
      "outputs": [],
      "stateMutability": "nonpayable",
      "type": "function"
    },
    {
      "inputs": [
        {
          "internalType": "uint256",
          "name": "",
          "type": "uint256"
        }
      ],
      "name": "tokenList",
      "outputs": [
        {
          "internalType": "bytes32",
          "name": "",
          "type": "bytes32"
        }
      ],
      "stateMutability": "view",
      "type": "function",
      "constant": true
    },
    {
      "inputs": [
        {
          "internalType": "bytes32",
          "name": "",
          "type": "bytes32"
        }
      ],
      "name": "tokenMapping",
      "outputs": [
        {
          "internalType": "bytes32",
          "name": "ticker",
          "type": "bytes32"
        },
        {
          "internalType": "address",
          "name": "tokenAddress",
          "type": "address"
        }
      ],
      "stateMutability": "view",
      "type": "function",
      "constant": true
    },
    {
      "inputs": [
        {
          "internalType": "address",
          "name": "newOwner",
          "type": "address"
        }
      ],
      "name": "transferOwnership",
      "outputs": [],
      "stateMutability": "nonpayable",
      "type": "function"
    },
    {
      "inputs": [
        {
          "internalType": "uint256",
          "name": "amount",
          "type": "uint256"
        },
        {
          "internalType": "bytes32",
          "name": "ticker",
          "type": "bytes32"
        }
      ],
      "name": "withdraw",
      "outputs": [],
      "stateMutability": "nonpayable",
      "type": "function"
    },
    {
      "inputs": [
        {
          "internalType": "uint256",
          "name": "amount",
          "type": "uint256"
        }
      ],
      "name": "withdrawEth",
      "outputs": [],
      "stateMutability": "nonpayable",
      "type": "function"
    },
    {
      "inputs": [
        {
          "internalType": "bytes32",
          "name": "ticker",
          "type": "bytes32"
        },
        {
          "internalType": "enum Dex.Side",
          "name": "side",
          "type": "uint8"
        }
      ],
      "name": "getOrderBook",
      "outputs": [
        {
          "components": [
            {
              "internalType": "uint256",
              "name": "id",
              "type": "uint256"
            },
            {
              "internalType": "address",
              "name": "trader",
              "type": "address"
            },
            {
              "internalType": "enum Dex.Side",
              "name": "side",
              "type": "uint8"
            },
            {
              "internalType": "bytes32",
              "name": "ticker",
              "type": "bytes32"
            },
            {
              "internalType": "uint256",
              "name": "amount",
              "type": "uint256"
            },
            {
              "internalType": "uint256",
              "name": "price",
              "type": "uint256"
            },
            {
              "internalType": "uint256",
              "name": "filled",
              "type": "uint256"
            }
          ],
          "internalType": "struct Dex.Order[]",
          "name": "",
          "type": "tuple[]"
        }
      ],
      "stateMutability": "view",
      "type": "function",
      "constant": true
    },
    {
      "inputs": [
        {
          "internalType": "enum Dex.Side",
          "name": "side",
          "type": "uint8"
        },
        {
          "internalType": "bytes32",
          "name": "ticker",
          "type": "bytes32"
        },
        {
          "internalType": "uint256",
          "name": "amount",
          "type": "uint256"
        },
        {
          "internalType": "uint256",
          "name": "price",
          "type": "uint256"
        }
      ],
      "name": "createLimitOrder",
      "outputs": [],
      "stateMutability": "nonpayable",
      "type": "function"
    },
    {
      "inputs": [
        {
          "internalType": "enum Dex.Side",
          "name": "side",
          "type": "uint8"
        },
        {
          "internalType": "bytes32",
          "name": "ticker",
          "type": "bytes32"
        },
        {
          "internalType": "uint256",
          "name": "amount",
          "type": "uint256"
        }
      ],
      "name": "createMarketOrder",
      "outputs": [],
      "stateMutability": "nonpayable",
      "type": "function"
    }
  ],
  "bytecode": "0x608060405260006004553480156200001657600080fd5b50620000376200002b6200003d60201b60201c565b6200004560201b60201c565b62000109565b600033905090565b60008060009054906101000a900473ffffffffffffffffffffffffffffffffffffffff169050816000806101000a81548173ffffffffffffffffffffffffffffffffffffffff021916908373ffffffffffffffffffffffffffffffffffffffff1602179055508173ffffffffffffffffffffffffffffffffffffffff168173ffffffffffffffffffffffffffffffffffffffff167f8be0079c531659141344cd1fd0a4f28419497f9722a3daafe3b4186f6b6457e060405160405180910390a35050565b61402a80620001196000396000f3fe6080604052600436106100f35760003560e01c80639776aacf1161008a578063ba58ea6811610059578063ba58ea681461030e578063c311d0491461034b578063c9630cb014610374578063f2fde38b1461039d576100f3565b80639776aacf1461025657806399ec2f1c1461027f5780639ead7222146102a8578063a8d2021a146102e5576100f3565b8063667cb4ba116100c6578063667cb4ba146101ad5780636f3b62f9146101eb578063715018a6146102145780638da5cb5b1461022b576100f3565b80630bb431b6146100f85780631f14df691461013b5780632a58b33014610178578063439370b1146101a3575b600080fd5b34801561010457600080fd5b5061011f600480360381019061011a91906135b1565b6103c6565b6040516101329796959493929190613c84565b60405180910390f35b34801561014757600080fd5b50610162600480360381019061015d91906134ab565b61045f565b60405161016f9190613c69565b60405180910390f35b34801561018457600080fd5b5061018d610484565b60405161019a9190613c69565b60405180910390f35b6101ab61048a565b005b3480156101b957600080fd5b506101d460048036038101906101cf9190613510565b610583565b6040516101e2929190613b60565b60405180910390f35b3480156101f757600080fd5b50610212600480360381019061020d919061364f565b6105c7565b005b34801561022057600080fd5b506102296114a8565b005b34801561023757600080fd5b50610240611530565b60405161024d9190613aa8565b60405180910390f35b34801561026257600080fd5b5061027d60048036038101906102789190613539565b611559565b005b34801561028b57600080fd5b506102a660048036038101906102a19190613600565b61166b565b005b3480156102b457600080fd5b506102cf60048036038101906102ca91906136b2565b6128e7565b6040516102dc9190613b45565b60405180910390f35b3480156102f157600080fd5b5061030c600480360381019061030791906136db565b61290b565b005b34801561031a57600080fd5b5061033560048036038101906103309190613575565b612bc5565b6040516103429190613b23565b60405180910390f35b34801561035757600080fd5b50610372600480360381019061036d91906136b2565b612d90565b005b34801561038057600080fd5b5061039b600480360381019061039691906136db565b612fea565b005b3480156103a957600080fd5b506103c460048036038101906103bf9190613482565b613213565b005b600560205282600052604060002060205281600052604060002081815481106103ee57600080fd5b906000526020600020906006020160009250925050508060000154908060010160009054906101000a900473ffffffffffffffffffffffffffffffffffffffff16908060010160149054906101000a900460ff16908060020154908060030154908060040154908060050154905087565b6001602052816000526040600020602052806000526040600020600091509150505481565b60045481565b61050d34600160003373ffffffffffffffffffffffffffffffffffffffff1673ffffffffffffffffffffffffffffffffffffffff16815260200190815260200160002060007f455448000000000000000000000000000000000000000000000000000000000081526020019081526020016000205461330b90919063ffffffff16565b600160003373ffffffffffffffffffffffffffffffffffffffff1673ffffffffffffffffffffffffffffffffffffffff16815260200190815260200160002060007f4554480000000000000000000000000000000000000000000000000000000000815260200190815260200160002081905550565b60036020528060005260406000206000915090508060000154908060010160009054906101000a900473ffffffffffffffffffffffffffffffffffffffff16905082565b60006001811115610601577f4e487b7100000000000000000000000000000000000000000000000000000000600052602160045260246000fd5b84600181111561063a577f4e487b7100000000000000000000000000000000000000000000000000000000600052602160045260246000fd5b14156106d457610653818361332190919063ffffffff16565b600160003373ffffffffffffffffffffffffffffffffffffffff1673ffffffffffffffffffffffffffffffffffffffff16815260200190815260200160002060007f455448000000000000000000000000000000000000000000000000000000000081526020019081526020016000205410156106cf57600080fd5b6107ab565b60018081111561070d577f4e487b7100000000000000000000000000000000000000000000000000000000600052602160045260246000fd5b846001811115610746577f4e487b7100000000000000000000000000000000000000000000000000000000600052602160045260246000fd5b14156107aa5781600160003373ffffffffffffffffffffffffffffffffffffffff1673ffffffffffffffffffffffffffffffffffffffff16815260200190815260200160002060008581526020019081526020016000205410156107a957600080fd5b5b5b60006005600085815260200190815260200160002060008660018111156107fb577f4e487b7100000000000000000000000000000000000000000000000000000000600052602160045260246000fd5b81526020019081526020016000209050806040518060e0016040528060045481526020013373ffffffffffffffffffffffffffffffffffffffff168152602001876001811115610874577f4e487b7100000000000000000000000000000000000000000000000000000000600052602160045260246000fd5b8152602001868152602001858152602001848152602001600081525090806001815401808255809150506001900390600052602060002090600602016000909190919091506000820151816000015560208201518160010160006101000a81548173ffffffffffffffffffffffffffffffffffffffff021916908373ffffffffffffffffffffffffffffffffffffffff16021790555060408201518160010160146101000a81548160ff0219169083600181111561095b577f4e487b7100000000000000000000000000000000000000000000000000000000600052602160045260246000fd5b0217905550606082015181600201556080820151816003015560a0820151816004015560c08201518160050155505060008082805490501161099e5760006109b0565b600182805490506109af9190613df8565b5b9050600060018111156109ec577f4e487b7100000000000000000000000000000000000000000000000000000000600052602160045260246000fd5b866001811115610a25577f4e487b7100000000000000000000000000000000000000000000000000000000600052602160045260246000fd5b1415610f1f575b6000811115610f1a57818181548110610a6e577f4e487b7100000000000000000000000000000000000000000000000000000000600052603260045260246000fd5b90600052602060002090600602016004015482600183610a8e9190613df8565b81548110610ac5577f4e487b7100000000000000000000000000000000000000000000000000000000600052603260045260246000fd5b9060005260206000209060060201600401541115610ae257610f1a565b600082600183610af29190613df8565b81548110610b29577f4e487b7100000000000000000000000000000000000000000000000000000000600052603260045260246000fd5b90600052602060002090600602016040518060e0016040529081600082015481526020016001820160009054906101000a900473ffffffffffffffffffffffffffffffffffffffff1673ffffffffffffffffffffffffffffffffffffffff1673ffffffffffffffffffffffffffffffffffffffff1681526020016001820160149054906101000a900460ff166001811115610bed577f4e487b7100000000000000000000000000000000000000000000000000000000600052602160045260246000fd5b6001811115610c25577f4e487b7100000000000000000000000000000000000000000000000000000000600052602160045260246000fd5b81526020016002820154815260200160038201548152602001600482015481526020016005820154815250509050828281548110610c8c577f4e487b7100000000000000000000000000000000000000000000000000000000600052603260045260246000fd5b906000526020600020906006020183600184610ca89190613df8565b81548110610cdf577f4e487b7100000000000000000000000000000000000000000000000000000000600052603260045260246000fd5b9060005260206000209060060201600082015481600001556001820160009054906101000a900473ffffffffffffffffffffffffffffffffffffffff168160010160006101000a81548173ffffffffffffffffffffffffffffffffffffffff021916908373ffffffffffffffffffffffffffffffffffffffff1602179055506001820160149054906101000a900460ff168160010160146101000a81548160ff02191690836001811115610dbc577f4e487b7100000000000000000000000000000000000000000000000000000000600052602160045260246000fd5b02179055506002820154816002015560038201548160030155600482015481600401556005820154816005015590505080838381548110610e26577f4e487b7100000000000000000000000000000000000000000000000000000000600052603260045260246000fd5b90600052602060002090600602016000820151816000015560208201518160010160006101000a81548173ffffffffffffffffffffffffffffffffffffffff021916908373ffffffffffffffffffffffffffffffffffffffff16021790555060408201518160010160146101000a81548160ff02191690836001811115610ed6577f4e487b7100000000000000000000000000000000000000000000000000000000600052602160045260246000fd5b0217905550606082015181600201556080820151816003015560a0820151816004015560c082015181600501559050508180610f1190613ea3565b92505050610a2c565b611488565b600180811115610f58577f4e487b7100000000000000000000000000000000000000000000000000000000600052602160045260246000fd5b866001811115610f91577f4e487b7100000000000000000000000000000000000000000000000000000000600052602160045260246000fd5b1415611487575b600081111561105357818181548110610fda577f4e487b7100000000000000000000000000000000000000000000000000000000600052603260045260246000fd5b90600052602060002090600602016004015482600183610ffa9190613df8565b81548110611031577f4e487b7100000000000000000000000000000000000000000000000000000000600052603260045260246000fd5b906000526020600020906006020160040154101561104e57611053565b610f98565b6000826001836110639190613df8565b8154811061109a577f4e487b7100000000000000000000000000000000000000000000000000000000600052603260045260246000fd5b90600052602060002090600602016040518060e0016040529081600082015481526020016001820160009054906101000a900473ffffffffffffffffffffffffffffffffffffffff1673ffffffffffffffffffffffffffffffffffffffff1673ffffffffffffffffffffffffffffffffffffffff1681526020016001820160149054906101000a900460ff16600181111561115e577f4e487b7100000000000000000000000000000000000000000000000000000000600052602160045260246000fd5b6001811115611196577f4e487b7100000000000000000000000000000000000000000000000000000000600052602160045260246000fd5b815260200160028201548152602001600382015481526020016004820154815260200160058201548152505090508282815481106111fd577f4e487b7100000000000000000000000000000000000000000000000000000000600052603260045260246000fd5b9060005260206000209060060201836001846112199190613df8565b81548110611250577f4e487b7100000000000000000000000000000000000000000000000000000000600052603260045260246000fd5b9060005260206000209060060201600082015481600001556001820160009054906101000a900473ffffffffffffffffffffffffffffffffffffffff168160010160006101000a81548173ffffffffffffffffffffffffffffffffffffffff021916908373ffffffffffffffffffffffffffffffffffffffff1602179055506001820160149054906101000a900460ff168160010160146101000a81548160ff0219169083600181111561132d577f4e487b7100000000000000000000000000000000000000000000000000000000600052602160045260246000fd5b02179055506002820154816002015560038201548160030155600482015481600401556005820154816005015590505080838381548110611397577f4e487b7100000000000000000000000000000000000000000000000000000000600052603260045260246000fd5b90600052602060002090600602016000820151816000015560208201518160010160006101000a81548173ffffffffffffffffffffffffffffffffffffffff021916908373ffffffffffffffffffffffffffffffffffffffff16021790555060408201518160010160146101000a81548160ff02191690836001811115611447577f4e487b7100000000000000000000000000000000000000000000000000000000600052602160045260246000fd5b0217905550606082015181600201556080820151816003015560a0820151816004015560c08201518160050155905050818061148290613ea3565b925050505b5b6004600081548092919061149b90613ecd565b9190505550505050505050565b6114b0613337565b73ffffffffffffffffffffffffffffffffffffffff166114ce611530565b73ffffffffffffffffffffffffffffffffffffffff1614611524576040517f08c379a000000000000000000000000000000000000000000000000000000000815260040161151b90613c29565b60405180910390fd5b61152e600061333f565b565b60008060009054906101000a900473ffffffffffffffffffffffffffffffffffffffff16905090565b611561613337565b73ffffffffffffffffffffffffffffffffffffffff1661157f611530565b73ffffffffffffffffffffffffffffffffffffffff16146115d5576040517f08c379a00000000000000000000000000000000000000000000000000000000081526004016115cc90613c29565b60405180910390fd5b60405180604001604052808381526020018273ffffffffffffffffffffffffffffffffffffffff16815250600360008481526020019081526020016000206000820151816000015560208201518160010160006101000a81548173ffffffffffffffffffffffffffffffffffffffff021916908373ffffffffffffffffffffffffffffffffffffffff1602179055509050505050565b6001808111156116a4577f4e487b7100000000000000000000000000000000000000000000000000000000600052602160045260246000fd5b8360018111156116dd577f4e487b7100000000000000000000000000000000000000000000000000000000600052602160045260246000fd5b14156117775780600160003373ffffffffffffffffffffffffffffffffffffffff1673ffffffffffffffffffffffffffffffffffffffff1681526020019081526020016000206000848152602001908152602001600020541015611776576040517f08c379a000000000000000000000000000000000000000000000000000000000815260040161176d90613bc9565b60405180910390fd5b5b60008060018111156117b2577f4e487b7100000000000000000000000000000000000000000000000000000000600052602160045260246000fd5b8460018111156117eb577f4e487b7100000000000000000000000000000000000000000000000000000000600052602160045260246000fd5b14156117fa57600190506117ff565b600090505b600060056000858152602001908152602001600020600083815260200190815260200160002090506000805b82805490508110801561183d57508482105b156125af576000611857838761340390919063ffffffff16565b90506000611902858481548110611897577f4e487b7100000000000000000000000000000000000000000000000000000000600052603260045260246000fd5b9060005260206000209060060201600501548685815481106118e2577f4e487b7100000000000000000000000000000000000000000000000000000000600052603260045260246000fd5b90600052602060002090600602016003015461340390919063ffffffff16565b90506000828211156119165782905061191a565b8190505b61192d818661330b90919063ffffffff16565b945061198c8187868154811061196c577f4e487b7100000000000000000000000000000000000000000000000000000000600052603260045260246000fd5b90600052602060002090600602016005015461330b90919063ffffffff16565b8685815481106119c5577f4e487b7100000000000000000000000000000000000000000000000000000000600052603260045260246000fd5b9060005260206000209060060201600501819055506000611a39878681548110611a18577f4e487b7100000000000000000000000000000000000000000000000000000000600052603260045260246000fd5b9060005260206000209060060201600401548361332190919063ffffffff16565b905060006001811115611a75577f4e487b7100000000000000000000000000000000000000000000000000000000600052602160045260246000fd5b8b6001811115611aae577f4e487b7100000000000000000000000000000000000000000000000000000000600052602160045260246000fd5b141561201a5780600160003373ffffffffffffffffffffffffffffffffffffffff1673ffffffffffffffffffffffffffffffffffffffff16815260200190815260200160002060007f45544800000000000000000000000000000000000000000000000000000000008152602001908152602001600020541015611b3157600080fd5b611b9482600160003373ffffffffffffffffffffffffffffffffffffffff1673ffffffffffffffffffffffffffffffffffffffff16815260200190815260200160002060008d81526020019081526020016000205461330b90919063ffffffff16565b600160003373ffffffffffffffffffffffffffffffffffffffff1673ffffffffffffffffffffffffffffffffffffffff16815260200190815260200160002060008c815260200190815260200160002081905550611c4b81600160003373ffffffffffffffffffffffffffffffffffffffff1673ffffffffffffffffffffffffffffffffffffffff16815260200190815260200160002060008d81526020019081526020016000205461340390919063ffffffff16565b600160003373ffffffffffffffffffffffffffffffffffffffff1673ffffffffffffffffffffffffffffffffffffffff16815260200190815260200160002060007f4554480000000000000000000000000000000000000000000000000000000000815260200190815260200160002081905550611d8c82600160008a8981548110611d00577f4e487b7100000000000000000000000000000000000000000000000000000000600052603260045260246000fd5b906000526020600020906006020160010160009054906101000a900473ffffffffffffffffffffffffffffffffffffffff1673ffffffffffffffffffffffffffffffffffffffff1673ffffffffffffffffffffffffffffffffffffffff16815260200190815260200160002060008d81526020019081526020016000205461340390919063ffffffff16565b60016000898881548110611dc9577f4e487b7100000000000000000000000000000000000000000000000000000000600052603260045260246000fd5b906000526020600020906006020160010160009054906101000a900473ffffffffffffffffffffffffffffffffffffffff1673ffffffffffffffffffffffffffffffffffffffff1673ffffffffffffffffffffffffffffffffffffffff16815260200190815260200160002060008c815260200190815260200160002081905550611f3781600160008a8981548110611e8b577f4e487b7100000000000000000000000000000000000000000000000000000000600052603260045260246000fd5b906000526020600020906006020160010160009054906101000a900473ffffffffffffffffffffffffffffffffffffffff1673ffffffffffffffffffffffffffffffffffffffff1673ffffffffffffffffffffffffffffffffffffffff16815260200190815260200160002060007f455448000000000000000000000000000000000000000000000000000000000081526020019081526020016000205461330b90919063ffffffff16565b60016000898881548110611f74577f4e487b7100000000000000000000000000000000000000000000000000000000600052603260045260246000fd5b906000526020600020906006020160010160009054906101000a900473ffffffffffffffffffffffffffffffffffffffff1673ffffffffffffffffffffffffffffffffffffffff1673ffffffffffffffffffffffffffffffffffffffff16815260200190815260200160002060007f4554480000000000000000000000000000000000000000000000000000000000815260200190815260200160002081905550612598565b600180811115612053577f4e487b7100000000000000000000000000000000000000000000000000000000600052602160045260246000fd5b8b600181111561208c577f4e487b7100000000000000000000000000000000000000000000000000000000600052602160045260246000fd5b1415612597576120f582600160003373ffffffffffffffffffffffffffffffffffffffff1673ffffffffffffffffffffffffffffffffffffffff16815260200190815260200160002060008d81526020019081526020016000205461340390919063ffffffff16565b600160003373ffffffffffffffffffffffffffffffffffffffff1673ffffffffffffffffffffffffffffffffffffffff16815260200190815260200160002060008c8152602001908152602001600020819055506121cc81600160003373ffffffffffffffffffffffffffffffffffffffff1673ffffffffffffffffffffffffffffffffffffffff16815260200190815260200160002060007f455448000000000000000000000000000000000000000000000000000000000081526020019081526020016000205461330b90919063ffffffff16565b600160003373ffffffffffffffffffffffffffffffffffffffff1673ffffffffffffffffffffffffffffffffffffffff16815260200190815260200160002060007f455448000000000000000000000000000000000000000000000000000000000081526020019081526020016000208190555061230d82600160008a8981548110612281577f4e487b7100000000000000000000000000000000000000000000000000000000600052603260045260246000fd5b906000526020600020906006020160010160009054906101000a900473ffffffffffffffffffffffffffffffffffffffff1673ffffffffffffffffffffffffffffffffffffffff1673ffffffffffffffffffffffffffffffffffffffff16815260200190815260200160002060008d81526020019081526020016000205461330b90919063ffffffff16565b6001600089888154811061234a577f4e487b7100000000000000000000000000000000000000000000000000000000600052603260045260246000fd5b906000526020600020906006020160010160009054906101000a900473ffffffffffffffffffffffffffffffffffffffff1673ffffffffffffffffffffffffffffffffffffffff1673ffffffffffffffffffffffffffffffffffffffff16815260200190815260200160002060008c8152602001908152602001600020819055506124b881600160008a898154811061240c577f4e487b7100000000000000000000000000000000000000000000000000000000600052603260045260246000fd5b906000526020600020906006020160010160009054906101000a900473ffffffffffffffffffffffffffffffffffffffff1673ffffffffffffffffffffffffffffffffffffffff1673ffffffffffffffffffffffffffffffffffffffff16815260200190815260200160002060007f455448000000000000000000000000000000000000000000000000000000000081526020019081526020016000205461340390919063ffffffff16565b600160008988815481106124f5577f4e487b7100000000000000000000000000000000000000000000000000000000600052603260045260246000fd5b906000526020600020906006020160010160009054906101000a900473ffffffffffffffffffffffffffffffffffffffff1673ffffffffffffffffffffffffffffffffffffffff1673ffffffffffffffffffffffffffffffffffffffff16815260200190815260200160002060007f45544800000000000000000000000000000000000000000000000000000000008152602001908152602001600020819055505b5b5050505080806125a790613ecd565b91505061182b565b505b6000828054905011801561265a5750816000815481106125fa577f4e487b7100000000000000000000000000000000000000000000000000000000600052603260045260246000fd5b90600052602060002090600602016003015482600081548110612646577f4e487b7100000000000000000000000000000000000000000000000000000000600052603260045260246000fd5b906000526020600020906006020160050154145b156128df5760005b600183805490506126739190613df8565b81101561282657826001826126889190613d48565b815481106126bf577f4e487b7100000000000000000000000000000000000000000000000000000000600052603260045260246000fd5b9060005260206000209060060201838281548110612706577f4e487b7100000000000000000000000000000000000000000000000000000000600052603260045260246000fd5b9060005260206000209060060201600082015481600001556001820160009054906101000a900473ffffffffffffffffffffffffffffffffffffffff168160010160006101000a81548173ffffffffffffffffffffffffffffffffffffffff021916908373ffffffffffffffffffffffffffffffffffffffff1602179055506001820160149054906101000a900460ff168160010160146101000a81548160ff021916908360018111156127e3577f4e487b7100000000000000000000000000000000000000000000000000000000600052602160045260246000fd5b021790555060028201548160020155600382015481600301556004820154816004015560058201548160050155905050808061281e90613ecd565b915050612662565b508180548061285e577f4e487b7100000000000000000000000000000000000000000000000000000000600052603160045260246000fd5b60019003818190600052602060002090600602016000808201600090556001820160006101000a81549073ffffffffffffffffffffffffffffffffffffffff02191690556001820160146101000a81549060ff02191690556002820160009055600382016000905560048201600090556005820160009055505090556125b1565b505050505050565b600281815481106128f757600080fd5b906000526020600020016000915090505481565b80600073ffffffffffffffffffffffffffffffffffffffff166003600083815260200190815260200160002060010160009054906101000a900473ffffffffffffffffffffffffffffffffffffffff1673ffffffffffffffffffffffffffffffffffffffff1614156129b2576040517f08c379a00000000000000000000000000000000000000000000000000000000081526004016129a990613c09565b60405180910390fd5b82600160003373ffffffffffffffffffffffffffffffffffffffff1673ffffffffffffffffffffffffffffffffffffffff1681526020019081526020016000206000848152602001908152602001600020541015612a45576040517f08c379a0000000000000000000000000000000000000000000000000000000008152600401612a3c90613c49565b60405180910390fd5b612aa883600160003373ffffffffffffffffffffffffffffffffffffffff1673ffffffffffffffffffffffffffffffffffffffff16815260200190815260200160002060008581526020019081526020016000205461340390919063ffffffff16565b600160003373ffffffffffffffffffffffffffffffffffffffff1673ffffffffffffffffffffffffffffffffffffffff1681526020019081526020016000206000848152602001908152602001600020819055506003600083815260200190815260200160002060010160009054906101000a900473ffffffffffffffffffffffffffffffffffffffff1673ffffffffffffffffffffffffffffffffffffffff1663a9059cbb33856040518363ffffffff1660e01b8152600401612b6d929190613afa565b602060405180830381600087803b158015612b8757600080fd5b505af1158015612b9b573d6000803e3d6000fd5b505050506040513d601f19601f82011682018060405250810190612bbf91906134e7565b50505050565b6060600560008481526020019081526020016000206000836001811115612c15577f4e487b7100000000000000000000000000000000000000000000000000000000600052602160045260246000fd5b8152602001908152602001600020805480602002602001604051908101604052809291908181526020016000905b82821015612d8457838290600052602060002090600602016040518060e0016040529081600082015481526020016001820160009054906101000a900473ffffffffffffffffffffffffffffffffffffffff1673ffffffffffffffffffffffffffffffffffffffff1673ffffffffffffffffffffffffffffffffffffffff1681526020016001820160149054906101000a900460ff166001811115612d11577f4e487b7100000000000000000000000000000000000000000000000000000000600052602160045260246000fd5b6001811115612d49577f4e487b7100000000000000000000000000000000000000000000000000000000600052602160045260246000fd5b815260200160028201548152602001600382015481526020016004820154815260200160058201548152505081526020019060010190612c43565b50505050905092915050565b80600160003373ffffffffffffffffffffffffffffffffffffffff1673ffffffffffffffffffffffffffffffffffffffff16815260200190815260200160002060007f45544800000000000000000000000000000000000000000000000000000000008152602001908152602001600020541015612e43576040517f08c379a0000000000000000000000000000000000000000000000000000000008152600401612e3a90613ba9565b60405180910390fd5b612ec681600160003373ffffffffffffffffffffffffffffffffffffffff1673ffffffffffffffffffffffffffffffffffffffff16815260200190815260200160002060007f455448000000000000000000000000000000000000000000000000000000000081526020019081526020016000205461340390919063ffffffff16565b600160003373ffffffffffffffffffffffffffffffffffffffff1673ffffffffffffffffffffffffffffffffffffffff16815260200190815260200160002060007f455448000000000000000000000000000000000000000000000000000000000081526020019081526020016000208190555060003373ffffffffffffffffffffffffffffffffffffffff1682604051612f6090613a93565b60006040518083038185875af1925050503d8060008114612f9d576040519150601f19603f3d011682016040523d82523d6000602084013e612fa2565b606091505b5050905080612fe6576040517f08c379a0000000000000000000000000000000000000000000000000000000008152600401612fdd90613be9565b60405180910390fd5b5050565b80600073ffffffffffffffffffffffffffffffffffffffff166003600083815260200190815260200160002060010160009054906101000a900473ffffffffffffffffffffffffffffffffffffffff1673ffffffffffffffffffffffffffffffffffffffff161415613091576040517f08c379a000000000000000000000000000000000000000000000000000000000815260040161308890613c09565b60405180910390fd5b6130f483600160003373ffffffffffffffffffffffffffffffffffffffff1673ffffffffffffffffffffffffffffffffffffffff16815260200190815260200160002060008581526020019081526020016000205461330b90919063ffffffff16565b600160003373ffffffffffffffffffffffffffffffffffffffff1673ffffffffffffffffffffffffffffffffffffffff1681526020019081526020016000206000848152602001908152602001600020819055506003600083815260200190815260200160002060010160009054906101000a900473ffffffffffffffffffffffffffffffffffffffff1673ffffffffffffffffffffffffffffffffffffffff166323b872dd3330866040518463ffffffff1660e01b81526004016131bb93929190613ac3565b602060405180830381600087803b1580156131d557600080fd5b505af11580156131e9573d6000803e3d6000fd5b505050506040513d601f19601f8201168201806040525081019061320d91906134e7565b50505050565b61321b613337565b73ffffffffffffffffffffffffffffffffffffffff16613239611530565b73ffffffffffffffffffffffffffffffffffffffff161461328f576040517f08c379a000000000000000000000000000000000000000000000000000000000815260040161328690613c29565b60405180910390fd5b600073ffffffffffffffffffffffffffffffffffffffff168173ffffffffffffffffffffffffffffffffffffffff1614156132ff576040517f08c379a00000000000000000000000000000000000000000000000000000000081526004016132f690613b89565b60405180910390fd5b6133088161333f565b50565b600081836133199190613d48565b905092915050565b6000818361332f9190613d9e565b905092915050565b600033905090565b60008060009054906101000a900473ffffffffffffffffffffffffffffffffffffffff169050816000806101000a81548173ffffffffffffffffffffffffffffffffffffffff021916908373ffffffffffffffffffffffffffffffffffffffff1602179055508173ffffffffffffffffffffffffffffffffffffffff168173ffffffffffffffffffffffffffffffffffffffff167f8be0079c531659141344cd1fd0a4f28419497f9722a3daafe3b4186f6b6457e060405160405180910390a35050565b600081836134119190613df8565b905092915050565b60008135905061342881613f88565b92915050565b60008151905061343d81613f9f565b92915050565b60008135905061345281613fb6565b92915050565b60008135905061346781613fcd565b92915050565b60008135905061347c81613fdd565b92915050565b60006020828403121561349457600080fd5b60006134a284828501613419565b91505092915050565b600080604083850312156134be57600080fd5b60006134cc85828601613419565b92505060206134dd85828601613443565b9150509250929050565b6000602082840312156134f957600080fd5b60006135078482850161342e565b91505092915050565b60006020828403121561352257600080fd5b600061353084828501613443565b91505092915050565b6000806040838503121561354c57600080fd5b600061355a85828601613443565b925050602061356b85828601613419565b9150509250929050565b6000806040838503121561358857600080fd5b600061359685828601613443565b92505060206135a785828601613458565b9150509250929050565b6000806000606084860312156135c657600080fd5b60006135d486828701613443565b93505060206135e58682870161346d565b92505060406135f68682870161346d565b9150509250925092565b60008060006060848603121561361557600080fd5b600061362386828701613458565b935050602061363486828701613443565b92505060406136458682870161346d565b9150509250925092565b6000806000806080858703121561366557600080fd5b600061367387828801613458565b945050602061368487828801613443565b93505060406136958782880161346d565b92505060606136a68782880161346d565b91505092959194509250565b6000602082840312156136c457600080fd5b60006136d28482850161346d565b91505092915050565b600080604083850312156136ee57600080fd5b60006136fc8582860161346d565b925050602061370d85828601613443565b9150509250929050565b600061372383836139e7565b60e08301905092915050565b61373881613e2c565b82525050565b61374781613e2c565b82525050565b600061375882613d03565b6137628185613d1b565b935061376d83613cf3565b8060005b8381101561379e5781516137858882613717565b975061379083613d0e565b925050600181019050613771565b5085935050505092915050565b6137b481613e4a565b82525050565b6137c381613e4a565b82525050565b6137d281613e91565b82525050565b6137e181613e91565b82525050565b60006137f4602683613d37565b91507f4f776e61626c653a206e6577206f776e657220697320746865207a65726f206160008301527f64647265737300000000000000000000000000000000000000000000000000006020830152604082019050919050565b600061385a601283613d37565b91507f496e7375666669656e742062616c616e636500000000000000000000000000006000830152602082019050919050565b600061389a601283613d37565b91507f496e73756666696369656e742046756e647300000000000000000000000000006000830152602082019050919050565b60006138da601483613d37565b91507f4661696c656420746f2073656e642045746865720000000000000000000000006000830152602082019050919050565b600061391a601483613d37565b91507f546f6b656e20646f6573206e6f742065786973740000000000000000000000006000830152602082019050919050565b600061395a602083613d37565b91507f4f776e61626c653a2063616c6c6572206973206e6f7420746865206f776e65726000830152602082019050919050565b600061399a601483613d37565b91507f496e73756666696369656e742042616c616e63650000000000000000000000006000830152602082019050919050565b60006139da600083613d2c565b9150600082019050919050565b60e0820160008201516139fd6000850182613a75565b506020820151613a10602085018261372f565b506040820151613a2360408501826137c9565b506060820151613a3660608501826137ab565b506080820151613a496080850182613a75565b5060a0820151613a5c60a0850182613a75565b5060c0820151613a6f60c0850182613a75565b50505050565b613a7e81613e87565b82525050565b613a8d81613e87565b82525050565b6000613a9e826139cd565b9150819050919050565b6000602082019050613abd600083018461373e565b92915050565b6000606082019050613ad8600083018661373e565b613ae5602083018561373e565b613af26040830184613a84565b949350505050565b6000604082019050613b0f600083018561373e565b613b1c6020830184613a84565b9392505050565b60006020820190508181036000830152613b3d818461374d565b905092915050565b6000602082019050613b5a60008301846137ba565b92915050565b6000604082019050613b7560008301856137ba565b613b82602083018461373e565b9392505050565b60006020820190508181036000830152613ba2816137e7565b9050919050565b60006020820190508181036000830152613bc28161384d565b9050919050565b60006020820190508181036000830152613be28161388d565b9050919050565b60006020820190508181036000830152613c02816138cd565b9050919050565b60006020820190508181036000830152613c228161390d565b9050919050565b60006020820190508181036000830152613c428161394d565b9050919050565b60006020820190508181036000830152613c628161398d565b9050919050565b6000602082019050613c7e6000830184613a84565b92915050565b600060e082019050613c99600083018a613a84565b613ca6602083018961373e565b613cb360408301886137d8565b613cc060608301876137ba565b613ccd6080830186613a84565b613cda60a0830185613a84565b613ce760c0830184613a84565b98975050505050505050565b6000819050602082019050919050565b600081519050919050565b6000602082019050919050565b600082825260208201905092915050565b600081905092915050565b600082825260208201905092915050565b6000613d5382613e87565b9150613d5e83613e87565b9250827fffffffffffffffffffffffffffffffffffffffffffffffffffffffffffffffff03821115613d9357613d92613f16565b5b828201905092915050565b6000613da982613e87565b9150613db483613e87565b9250817fffffffffffffffffffffffffffffffffffffffffffffffffffffffffffffffff0483118215151615613ded57613dec613f16565b5b828202905092915050565b6000613e0382613e87565b9150613e0e83613e87565b925082821015613e2157613e20613f16565b5b828203905092915050565b6000613e3782613e67565b9050919050565b60008115159050919050565b6000819050919050565b6000819050613e6282613f74565b919050565b600073ffffffffffffffffffffffffffffffffffffffff82169050919050565b6000819050919050565b6000613e9c82613e54565b9050919050565b6000613eae82613e87565b91506000821415613ec257613ec1613f16565b5b600182039050919050565b6000613ed882613e87565b91507fffffffffffffffffffffffffffffffffffffffffffffffffffffffffffffffff821415613f0b57613f0a613f16565b5b600182019050919050565b7f4e487b7100000000000000000000000000000000000000000000000000000000600052601160045260246000fd5b7f4e487b7100000000000000000000000000000000000000000000000000000000600052602160045260246000fd5b60028110613f8557613f84613f45565b5b50565b613f9181613e2c565b8114613f9c57600080fd5b50565b613fa881613e3e565b8114613fb357600080fd5b50565b613fbf81613e4a565b8114613fca57600080fd5b50565b60028110613fda57600080fd5b50565b613fe681613e87565b8114613ff157600080fd5b5056fea264697066735822122017d17fd2f5825550b92f2843a4e2ed45ded9e47da0bcce6e5776b67262c8f6c364736f6c63430008000033",
  "immutableReferences": {},
  "source": "// SPDX-License-Identifier: MIT\npragma solidity ^0.8.0;\npragma experimental ABIEncoderV2;\n\nimport \"./wallet.sol\";\n\ncontract Dex is Wallet {\n    using SafeMath for uint256;\n\n    uint256 public nextOrderId = 0;\n\n    enum Side {\n        BUY,\n        SELL\n    }\n\n    //the other option in place of the enum would have been bool buyOrder but enum was easier to use\n    struct Order {\n        uint256 id;\n        address trader;\n        Side side;\n        bytes32 ticker;\n        uint256 amount;\n        uint256 price;\n        uint256 filled;\n    }\n\n    //the uint here is either 0 or 1 as it correlates to the enum. 0 is buy and 1 is sell. And this points to the order struct\n    //so now we have one order book for buy (0) and one for sell (1)\n    mapping(bytes32 => mapping(uint256 => Order[])) public orderBook;\n\n    function getOrderBook(bytes32 ticker, Side side)\n        public\n        view\n        returns (Order[] memory)\n    {\n        return orderBook[ticker][uint256(side)];\n    }\n\n    function createLimitOrder(\n        Side side,\n        bytes32 ticker,\n        uint256 amount,\n        uint256 price\n    ) public {\n        if (side == Side.BUY) {\n            require(balances[msg.sender][\"ETH\"] >= amount.mul(price));\n            //with the sell below you need to have the actual balance you want to sell (amount) so we make a require...\n        } else if (side == Side.SELL) {\n            require(balances[msg.sender][ticker] >= amount);\n        }\n        //We do not save in memory here but rather make a reference to an array that is in storage\n        //Remember you can't do mappings with enums so we need [uint(side)] which references 0 or 1 for the enum\n        Order[] storage orders = orderBook[ticker][uint256(side)];\n        //After we establish that it is a buy or sell order we can push the Order into the orders array\n        //for the Id input we can't just use .length, because there are 2 sides (buy and sell) and the id needs to be unique\n        //so we create the global variable nextOderId and use it as a counter.\n        orders.push(\n            Order(nextOrderId, msg.sender, side, ticker, amount, price, 0)\n        );\n\n        //Bubble Sort- traditional bubble sort does 2 iterations as the first iteration does not likely sort...\n        //becuase it compares values next to each other. One more iteration through will then sort the list properly\n        //Because our entries aren't totally random, they are in succession (nextOderId), we only need to take the...\n        //last entry and place it properly in the list. This requires only one iteration to get it sorted. So we don't\n        //need to do traditional bubble sort that has a loop within a loop, we just do one loop/iteration\n        //On the buy side we need the largest order first [10, 7, 5, 4, 3]\n        //When we do while loops we first need to define where we are starting so the\n        //first line reads.... if orders.length is > 0, uint i = orders.length -1 (index of last element)...\n        //if not, uint i is equal to 0. Meaning if the array is empty i = 0!\n        //If we just did this... uint i = orders.length - 1,  i would start as -1 which we don't want.\n        //Keep in mind real order books combine buys at same price and quantity into 1 larger buy order but we don't do that here\n        //This just puts into order book array and sorts but does not execute and transfer tokens. Market order does that.\n        uint256 i = orders.length > 0 ? orders.length - 1 : 0;\n        if (side == Side.BUY) {\n            while (i > 0) {\n                //we first check if a sort is necessary because it may not be.\n                //i is last element, i -1 is the second to last element! So we check is i -1 < i? If so we can break!\n                if (orders[i - 1].price > orders[i].price) {\n                    break;\n                }\n                //suppose we had [10, 5, 6] orderToMove will be 5. So we save 5 in memory\n                Order memory orderToMove = orders[i - 1];\n                //then we set it to orders[i], the very last number so we now have [10,6,6]\n                orders[i - 1] = orders[i];\n                //finally we set order[i] which is the 5 in memory and assign it to order to move so we get [10,6,5]\n                orders[i] = orderToMove;\n                //now we go we want to go i-- which brings us back two slots to the second postion [10,6,5] which is 6\n                //and we can compare again from the top of the loop, is i (6) < than i - 1 (10). It is, so we break!\n                //So as long as i > 0, this will continue to run/loop\n                i--;\n            }\n        } else if (side == Side.SELL) {\n            while (i > 0) {\n                //remember here we are sorting in the opposite direction (smallest order first [6,8,12])\n                //so if i - 1 < i [6,8], we can break as this is how we want it ordered\n                if (orders[i - 1].price < orders[i].price) {\n                    break;\n                }\n            }\n            Order memory orderToMove = orders[i - 1];\n            orders[i - 1] = orders[i];\n            orders[i] = orderToMove;\n            i--;\n        }\n        nextOrderId++;\n    }\n\n    //Here we iterate through the order book until the order is completely filled or the order book is empty\n    //We must fill at each of the best prices and then move to next price to fill at the price\n    //We must add a struct property \"uint filled\" for this. This keeps how much we have filled so far for the order\n    function createMarketOrder(\n        Side side,\n        bytes32 ticker,\n        uint256 amount\n    ) public {\n        //If this is a sell order we can verify the seller has enough tokens (ticker) to cover the amount he wants to sell\n        //We can't do this require for the buyer yet becuase we don't know the final cost of the buy until later\n        if (side == Side.SELL) {\n            require(\n                balances[msg.sender][ticker] >= amount,\n                \"Insufficient Funds\"\n            );\n        }\n        //A buy order is matched with the sell orders, so we need to pull the sell side  order book for a buy order & vice versa..\n        uint256 orderBookSide;\n        if (side == Side.BUY) {\n            orderBookSide = 1; //if its a buy order we want the opposite which is sell, which is 1\n        } else {\n            orderBookSide = 0; //if its a sell order we want the opposite which is buy, which is 0\n        }\n        //now we can save each order in an array called orders\n        Order[] storage orders = orderBook[ticker][uint256(orderBookSide)];\n        //Once we have the orderbook side we can start by creating the loop\n        //as long as i < orders.length (meaning we've gone through every order in the orderBook)...\n        //&& totalFilled < amount (meaning order is not yet completely filled) we will continue to loop thru orderBook\n        //So the way we exit this loop is either i becomes as large as order.length (meaning we looped thru entire oderBook) or...\n        //total filled is as big as amount, which means we filled the entire order.\n        uint256 totalFilled = 0;\n        for (uint256 i = 0; i < orders.length && totalFilled < amount; i++) {\n            //We need to figure out much we can fill from order[i]\n            //Need to update totalFilled\n            //We will try to fill the entire \"amount\", on each iteration but whatever is left we need to track...\n            //so we will need a var called unfilled to keep track of that so we create a uint leftToFill for that.\n            //Rememeber leftToFill will be equal to the entire order amount before the first iteration.\n            uint256 leftToFill = amount.sub(totalFilled); //amount - totalFilled\n            //this gives us the current state of the order book and tells us how much us available for us to fill\n            //order[i].filled is referring to the \"filled\" property in the Struct for a particular order but...\n            //remember the \"i\" means we are basically looking through every order in the orderbook.\n            //another way to look at it, is availableToFill is happening at the struct level (each order in orderbook)\n            uint256 availableToFill = orders[i].amount.sub(orders[i].filled); //orders.amount - orders.filled\n            uint256 filled = 0;\n            //this part of the if statement will fill the entire market order\n            if (availableToFill > leftToFill) {\n                filled = leftToFill;\n            }\n            //the else is only filling as much as available, it can not fill the entire order\n            else {\n                //availableToFill <= left to fill\n                filled = availableToFill;\n            }\n            //Now we know how much of this market order we can fill with this specific iteration and adjust totalFilled\n            totalFilled = totalFilled.add(filled);\n            //We also need to modify the order iself to reflect each iteration that has been filled\n            orders[i].filled = orders[i].filled.add(filled);\n            uint256 cost = filled.mul(orders[i].price);\n\n            //Now we need to execute the trade and shift balances between buyer and seller\n            if (side == Side.BUY) {\n                //verify that the buyer has enough funds to cover the purchase (require)\n                //here we mulitiply the amount filled by the price in each order iteration\n                require(balances[msg.sender][\"ETH\"] >= cost);\n                //buyer is msg.sender. Transfer ETH from buyer to seller. Add the ticker (filled) to balance. Deduct the ETH cost\n                balances[msg.sender][ticker] = balances[msg.sender][ticker].add(\n                    filled\n                );\n                balances[msg.sender][\"ETH\"] = balances[msg.sender][ticker].sub(\n                    cost\n                );\n\n                //Adjust Trader balance by deducting the ticker (filled) and adding the ETH (cost)\n                balances[orders[i].trader][ticker] = balances[orders[i].trader][\n                    ticker\n                ].sub(filled);\n                balances[orders[i].trader][\"ETH\"] = balances[orders[i].trader][\n                    \"ETH\"\n                ].add(cost);\n            } else if (side == Side.SELL) {\n                //we already did require at the beginning of the function to ensure he has funds to sell the amount he specified\n                //msg.sender is seller. Transfer tokens from seller to buyer. Transfer ETH from buyer to seller.\n                balances[msg.sender][ticker] = balances[msg.sender][ticker].sub(\n                    filled\n                );\n                balances[msg.sender][\"ETH\"] = balances[msg.sender][\"ETH\"].add(\n                    cost\n                );\n\n                //Adjust Trader balance by adding the ticker (filled) and subtracting the ETH (cost) from buying\n                balances[orders[i].trader][ticker] = balances[orders[i].trader][\n                    ticker\n                ].add(filled);\n                balances[orders[i].trader][\"ETH\"] = balances[orders[i].trader][\n                    \"ETH\"\n                ].sub(cost);\n            }\n        }\n        //We need to remove 100% filled order. Take the following example...\n        //Order(amount=10, filled=10),\n        //Order(amount=100, filled=100),\n        //Order(amount=25, filled=10),\n        //Order(amount=200, filled 0)\n        //The goal is to remove the top 2 which are the ones filled.\n        //Soon as we get to an order in the list that is not completely filled (3rd down) we can stop the loop because..\n        //we know that every order beneath isn't filled (filled orders at top). So this means we will\n        //only continue to loop \"while\" the order at the top [0] index is equal to the amount. That means it was filled.\n        //We will continue to check the index 0 \"while\" we loop through each order in the order book\n        while (orders.length > 0 && orders[0].filled == orders[0].amount) {\n            //Now that we have the while loop we want to remove the top element in the order array by overwriting every element...\n            //with the next elememt. Overwrite i with [i +1], i.e. order[0] will be overwritten as Order(amount =100,filled=100)\n            //The reason we stop at orders.length -1 is because there is no i+1 to replace it with so we need to stop at...\n            //the second to last one which is orders.length - 1. i.e. we'd stop at order(amount=25, filled=10) after its replaced\n            //If we continue for loop we will end up with duplicate at the end of the list which is the one we have to pop off\n            //We will continue to run the loop \"until\" we have removed all the filled orders. i.e. the top 2\n            for (uint256 i = 0; i < orders.length - 1; i++) {\n                orders[i] = orders[i + 1];\n            }\n            orders.pop();\n        }\n    }\n}\n",
  "sourcePath": "/Users/josephdeangeloi/Documents/IVAN ON TECH ACADEMY/Ethereum Smart Contracting 201/DEX/contracts/dex.sol",
  "compiler": {
    "name": "solc",
    "version": "0.8.0+commit.c7dfd78e.Emscripten.clang"
  },
  "schemaVersion": "3.4.6",
  "updatedAt": "2022-05-06T13:31:35.140Z",
  "networkType": "ethereum",
  "devdoc": {
    "kind": "dev",
    "methods": {
      "owner()": {
        "details": "Returns the address of the current owner."
      },
      "renounceOwnership()": {
        "details": "Leaves the contract without owner. It will not be possible to call `onlyOwner` functions anymore. Can only be called by the current owner. NOTE: Renouncing ownership will leave the contract without an owner, thereby removing any functionality that is only available to the owner."
      },
      "transferOwnership(address)": {
        "details": "Transfers ownership of the contract to a new account (`newOwner`). Can only be called by the current owner."
      }
    },
    "version": 1
  },
  "userdoc": {
    "kind": "user",
    "methods": {},
    "version": 1
  }
}