{
  "contractName": "Wallet",
  "abi": [
    {
      "anonymous": false,
      "inputs": [
        {
          "indexed": true,
          "internalType": "address",
          "name": "previousOwner",
          "type": "address"
        },
        {
          "indexed": true,
          "internalType": "address",
          "name": "newOwner",
          "type": "address"
        }
      ],
      "name": "OwnershipTransferred",
      "type": "event"
    },
    {
      "inputs": [
        {
          "internalType": "address",
          "name": "",
          "type": "address"
        },
        {
          "internalType": "bytes32",
          "name": "",
          "type": "bytes32"
        }
      ],
      "name": "balances",
      "outputs": [
        {
          "internalType": "uint256",
          "name": "",
          "type": "uint256"
        }
      ],
      "stateMutability": "view",
      "type": "function"
    },
    {
      "inputs": [],
      "name": "owner",
      "outputs": [
        {
          "internalType": "address",
          "name": "",
          "type": "address"
        }
      ],
      "stateMutability": "view",
      "type": "function"
    },
    {
      "inputs": [],
      "name": "renounceOwnership",
      "outputs": [],
      "stateMutability": "nonpayable",
      "type": "function"
    },
    {
      "inputs": [
        {
          "internalType": "uint256",
          "name": "",
          "type": "uint256"
        }
      ],
      "name": "tokenList",
      "outputs": [
        {
          "internalType": "bytes32",
          "name": "",
          "type": "bytes32"
        }
      ],
      "stateMutability": "view",
      "type": "function"
    },
    {
      "inputs": [
        {
          "internalType": "bytes32",
          "name": "",
          "type": "bytes32"
        }
      ],
      "name": "tokenMapping",
      "outputs": [
        {
          "internalType": "bytes32",
          "name": "ticker",
          "type": "bytes32"
        },
        {
          "internalType": "address",
          "name": "tokenAddress",
          "type": "address"
        }
      ],
      "stateMutability": "view",
      "type": "function"
    },
    {
      "inputs": [
        {
          "internalType": "address",
          "name": "newOwner",
          "type": "address"
        }
      ],
      "name": "transferOwnership",
      "outputs": [],
      "stateMutability": "nonpayable",
      "type": "function"
    },
    {
      "inputs": [
        {
          "internalType": "bytes32",
          "name": "ticker",
          "type": "bytes32"
        },
        {
          "internalType": "address",
          "name": "tokenAddress",
          "type": "address"
        }
      ],
      "name": "addToken",
      "outputs": [],
      "stateMutability": "nonpayable",
      "type": "function"
    },
    {
      "inputs": [
        {
          "internalType": "uint256",
          "name": "amount",
          "type": "uint256"
        },
        {
          "internalType": "bytes32",
          "name": "ticker",
          "type": "bytes32"
        }
      ],
      "name": "deposit",
      "outputs": [],
      "stateMutability": "nonpayable",
      "type": "function"
    },
    {
      "inputs": [
        {
          "internalType": "uint256",
          "name": "amount",
          "type": "uint256"
        },
        {
          "internalType": "bytes32",
          "name": "ticker",
          "type": "bytes32"
        }
      ],
      "name": "withdraw",
      "outputs": [],
      "stateMutability": "nonpayable",
      "type": "function"
    },
    {
      "inputs": [],
      "name": "depositEth",
      "outputs": [],
      "stateMutability": "payable",
      "type": "function"
    },
    {
      "inputs": [
        {
          "internalType": "uint256",
          "name": "amount",
          "type": "uint256"
        }
      ],
      "name": "withdrawEth",
      "outputs": [],
      "stateMutability": "nonpayable",
      "type": "function"
    }
  ],
  "bytecode": "0x608060405234801561001057600080fd5b5061002d61002261003260201b60201c565b61003a60201b60201c565b6100fe565b600033905090565b60008060009054906101000a900473ffffffffffffffffffffffffffffffffffffffff169050816000806101000a81548173ffffffffffffffffffffffffffffffffffffffff021916908373ffffffffffffffffffffffffffffffffffffffff1602179055508173ffffffffffffffffffffffffffffffffffffffff168173ffffffffffffffffffffffffffffffffffffffff167f8be0079c531659141344cd1fd0a4f28419497f9722a3daafe3b4186f6b6457e060405160405180910390a35050565b6115e98061010d6000396000f3fe60806040526004361061009c5760003560e01c80639776aacf116100645780639776aacf146101685780639ead722214610191578063a8d2021a146101ce578063c311d049146101f7578063c9630cb014610220578063f2fde38b146102495761009c565b80631f14df69146100a1578063439370b1146100de578063667cb4ba146100e8578063715018a6146101265780638da5cb5b1461013d575b600080fd5b3480156100ad57600080fd5b506100c860048036038101906100c39190610f65565b610272565b6040516100d59190611415565b60405180910390f35b6100e6610297565b005b3480156100f457600080fd5b5061010f600480360381019061010a9190610fca565b610390565b60405161011d92919061132c565b60405180910390f35b34801561013257600080fd5b5061013b6103d4565b005b34801561014957600080fd5b5061015261045c565b60405161015f9190611296565b60405180910390f35b34801561017457600080fd5b5061018f600480360381019061018a9190610ff3565b610485565b005b34801561019d57600080fd5b506101b860048036038101906101b3919061102f565b610597565b6040516101c59190611311565b60405180910390f35b3480156101da57600080fd5b506101f560048036038101906101f09190611058565b6105bb565b005b34801561020357600080fd5b5061021e6004803603810190610219919061102f565b610875565b005b34801561022c57600080fd5b5061024760048036038101906102429190611058565b610acf565b005b34801561025557600080fd5b50610270600480360381019061026b9190610f3c565b610cf8565b005b6001602052816000526040600020602052806000526040600020600091509150505481565b61031a34600160003373ffffffffffffffffffffffffffffffffffffffff1673ffffffffffffffffffffffffffffffffffffffff16815260200190815260200160002060007f4554480000000000000000000000000000000000000000000000000000000000815260200190815260200160002054610df090919063ffffffff16565b600160003373ffffffffffffffffffffffffffffffffffffffff1673ffffffffffffffffffffffffffffffffffffffff16815260200190815260200160002060007f4554480000000000000000000000000000000000000000000000000000000000815260200190815260200160002081905550565b60036020528060005260406000206000915090508060000154908060010160009054906101000a900473ffffffffffffffffffffffffffffffffffffffff16905082565b6103dc610e06565b73ffffffffffffffffffffffffffffffffffffffff166103fa61045c565b73ffffffffffffffffffffffffffffffffffffffff1614610450576040517f08c379a0000000000000000000000000000000000000000000000000000000008152600401610447906113d5565b60405180910390fd5b61045a6000610e0e565b565b60008060009054906101000a900473ffffffffffffffffffffffffffffffffffffffff16905090565b61048d610e06565b73ffffffffffffffffffffffffffffffffffffffff166104ab61045c565b73ffffffffffffffffffffffffffffffffffffffff1614610501576040517f08c379a00000000000000000000000000000000000000000000000000000000081526004016104f8906113d5565b60405180910390fd5b60405180604001604052808381526020018273ffffffffffffffffffffffffffffffffffffffff16815250600360008481526020019081526020016000206000820151816000015560208201518160010160006101000a81548173ffffffffffffffffffffffffffffffffffffffff021916908373ffffffffffffffffffffffffffffffffffffffff1602179055509050505050565b600281815481106105a757600080fd5b906000526020600020016000915090505481565b80600073ffffffffffffffffffffffffffffffffffffffff166003600083815260200190815260200160002060010160009054906101000a900473ffffffffffffffffffffffffffffffffffffffff1673ffffffffffffffffffffffffffffffffffffffff161415610662576040517f08c379a0000000000000000000000000000000000000000000000000000000008152600401610659906113b5565b60405180910390fd5b82600160003373ffffffffffffffffffffffffffffffffffffffff1673ffffffffffffffffffffffffffffffffffffffff16815260200190815260200160002060008481526020019081526020016000205410156106f5576040517f08c379a00000000000000000000000000000000000000000000000000000000081526004016106ec906113f5565b60405180910390fd5b61075883600160003373ffffffffffffffffffffffffffffffffffffffff1673ffffffffffffffffffffffffffffffffffffffff168152602001908152602001600020600085815260200190815260200160002054610ed290919063ffffffff16565b600160003373ffffffffffffffffffffffffffffffffffffffff1673ffffffffffffffffffffffffffffffffffffffff1681526020019081526020016000206000848152602001908152602001600020819055506003600083815260200190815260200160002060010160009054906101000a900473ffffffffffffffffffffffffffffffffffffffff1673ffffffffffffffffffffffffffffffffffffffff1663a9059cbb33856040518363ffffffff1660e01b815260040161081d9291906112e8565b602060405180830381600087803b15801561083757600080fd5b505af115801561084b573d6000803e3d6000fd5b505050506040513d601f19601f8201168201806040525081019061086f9190610fa1565b50505050565b80600160003373ffffffffffffffffffffffffffffffffffffffff1673ffffffffffffffffffffffffffffffffffffffff16815260200190815260200160002060007f45544800000000000000000000000000000000000000000000000000000000008152602001908152602001600020541015610928576040517f08c379a000000000000000000000000000000000000000000000000000000000815260040161091f90611375565b60405180910390fd5b6109ab81600160003373ffffffffffffffffffffffffffffffffffffffff1673ffffffffffffffffffffffffffffffffffffffff16815260200190815260200160002060007f4554480000000000000000000000000000000000000000000000000000000000815260200190815260200160002054610ed290919063ffffffff16565b600160003373ffffffffffffffffffffffffffffffffffffffff1673ffffffffffffffffffffffffffffffffffffffff16815260200190815260200160002060007f455448000000000000000000000000000000000000000000000000000000000081526020019081526020016000208190555060003373ffffffffffffffffffffffffffffffffffffffff1682604051610a4590611281565b60006040518083038185875af1925050503d8060008114610a82576040519150601f19603f3d011682016040523d82523d6000602084013e610a87565b606091505b5050905080610acb576040517f08c379a0000000000000000000000000000000000000000000000000000000008152600401610ac290611395565b60405180910390fd5b5050565b80600073ffffffffffffffffffffffffffffffffffffffff166003600083815260200190815260200160002060010160009054906101000a900473ffffffffffffffffffffffffffffffffffffffff1673ffffffffffffffffffffffffffffffffffffffff161415610b76576040517f08c379a0000000000000000000000000000000000000000000000000000000008152600401610b6d906113b5565b60405180910390fd5b610bd983600160003373ffffffffffffffffffffffffffffffffffffffff1673ffffffffffffffffffffffffffffffffffffffff168152602001908152602001600020600085815260200190815260200160002054610df090919063ffffffff16565b600160003373ffffffffffffffffffffffffffffffffffffffff1673ffffffffffffffffffffffffffffffffffffffff1681526020019081526020016000206000848152602001908152602001600020819055506003600083815260200190815260200160002060010160009054906101000a900473ffffffffffffffffffffffffffffffffffffffff1673ffffffffffffffffffffffffffffffffffffffff166323b872dd3330866040518463ffffffff1660e01b8152600401610ca0939291906112b1565b602060405180830381600087803b158015610cba57600080fd5b505af1158015610cce573d6000803e3d6000fd5b505050506040513d601f19601f82011682018060405250810190610cf29190610fa1565b50505050565b610d00610e06565b73ffffffffffffffffffffffffffffffffffffffff16610d1e61045c565b73ffffffffffffffffffffffffffffffffffffffff1614610d74576040517f08c379a0000000000000000000000000000000000000000000000000000000008152600401610d6b906113d5565b60405180910390fd5b600073ffffffffffffffffffffffffffffffffffffffff168173ffffffffffffffffffffffffffffffffffffffff161415610de4576040517f08c379a0000000000000000000000000000000000000000000000000000000008152600401610ddb90611355565b60405180910390fd5b610ded81610e0e565b50565b60008183610dfe919061144c565b905092915050565b600033905090565b60008060009054906101000a900473ffffffffffffffffffffffffffffffffffffffff169050816000806101000a81548173ffffffffffffffffffffffffffffffffffffffff021916908373ffffffffffffffffffffffffffffffffffffffff1602179055508173ffffffffffffffffffffffffffffffffffffffff168173ffffffffffffffffffffffffffffffffffffffff167f8be0079c531659141344cd1fd0a4f28419497f9722a3daafe3b4186f6b6457e060405160405180910390a35050565b60008183610ee091906114a2565b905092915050565b600081359050610ef781611557565b92915050565b600081519050610f0c8161156e565b92915050565b600081359050610f2181611585565b92915050565b600081359050610f368161159c565b92915050565b600060208284031215610f4e57600080fd5b6000610f5c84828501610ee8565b91505092915050565b60008060408385031215610f7857600080fd5b6000610f8685828601610ee8565b9250506020610f9785828601610f12565b9150509250929050565b600060208284031215610fb357600080fd5b6000610fc184828501610efd565b91505092915050565b600060208284031215610fdc57600080fd5b6000610fea84828501610f12565b91505092915050565b6000806040838503121561100657600080fd5b600061101485828601610f12565b925050602061102585828601610ee8565b9150509250929050565b60006020828403121561104157600080fd5b600061104f84828501610f27565b91505092915050565b6000806040838503121561106b57600080fd5b600061107985828601610f27565b925050602061108a85828601610f12565b9150509250929050565b61109d816114d6565b82525050565b6110ac816114f4565b82525050565b60006110bf60268361143b565b91507f4f776e61626c653a206e6577206f776e657220697320746865207a65726f206160008301527f64647265737300000000000000000000000000000000000000000000000000006020830152604082019050919050565b600061112560128361143b565b91507f496e7375666669656e742062616c616e636500000000000000000000000000006000830152602082019050919050565b600061116560148361143b565b91507f4661696c656420746f2073656e642045746865720000000000000000000000006000830152602082019050919050565b60006111a560148361143b565b91507f546f6b656e20646f6573206e6f742065786973740000000000000000000000006000830152602082019050919050565b60006111e560208361143b565b91507f4f776e61626c653a2063616c6c6572206973206e6f7420746865206f776e65726000830152602082019050919050565b600061122560148361143b565b91507f496e73756666696369656e742042616c616e63650000000000000000000000006000830152602082019050919050565b6000611265600083611430565b9150600082019050919050565b61127b8161151e565b82525050565b600061128c82611258565b9150819050919050565b60006020820190506112ab6000830184611094565b92915050565b60006060820190506112c66000830186611094565b6112d36020830185611094565b6112e06040830184611272565b949350505050565b60006040820190506112fd6000830185611094565b61130a6020830184611272565b9392505050565b600060208201905061132660008301846110a3565b92915050565b600060408201905061134160008301856110a3565b61134e6020830184611094565b9392505050565b6000602082019050818103600083015261136e816110b2565b9050919050565b6000602082019050818103600083015261138e81611118565b9050919050565b600060208201905081810360008301526113ae81611158565b9050919050565b600060208201905081810360008301526113ce81611198565b9050919050565b600060208201905081810360008301526113ee816111d8565b9050919050565b6000602082019050818103600083015261140e81611218565b9050919050565b600060208201905061142a6000830184611272565b92915050565b600081905092915050565b600082825260208201905092915050565b60006114578261151e565b91506114628361151e565b9250827fffffffffffffffffffffffffffffffffffffffffffffffffffffffffffffffff0382111561149757611496611528565b5b828201905092915050565b60006114ad8261151e565b91506114b88361151e565b9250828210156114cb576114ca611528565b5b828203905092915050565b60006114e1826114fe565b9050919050565b60008115159050919050565b6000819050919050565b600073ffffffffffffffffffffffffffffffffffffffff82169050919050565b6000819050919050565b7f4e487b7100000000000000000000000000000000000000000000000000000000600052601160045260246000fd5b611560816114d6565b811461156b57600080fd5b50565b611577816114e8565b811461158257600080fd5b50565b61158e816114f4565b811461159957600080fd5b50565b6115a58161151e565b81146115b057600080fd5b5056fea2646970667358221220e19a185df8d8b0397f517847b2570c1bd962f0394ed8f712e0200b08f83d923164736f6c63430008000033",
  "immutableReferences": {},
  "source": "// SPDX-License-Identifier: MIT\npragma solidity ^0.8.0;\n\nimport \"../node_modules/@openzeppelin/contracts/token/ERC20/IERC20.sol\";\nimport \"../node_modules/@openzeppelin/contracts/utils/math/SafeMath.sol\";\nimport \"../node_modules/@openzeppelin/contracts/access/Ownable.sol\";\n\ncontract Wallet is Ownable {\n    using SafeMath for uint256;\n    //every address/trader will have a balance, but you can have a balance of all diff types of coins\n    //because we have all diff coins we need a double mapping, that goes from address to the tokenId (token symbol)\n    //we could in theory do strings but we can't compare strings, so if we convert string to bytes we can do comparisons\n    mapping(address => mapping(bytes32 => uint256)) public balances;\n\n    struct Token {\n        bytes32 ticker;\n        address tokenAddress; //we need this so we can do transfer calls, we need the address of the token to do it & interface\n    }\n\n    //here we used combined storage design of being able to iterate through an array and a mapping to update very quickly\n    bytes32[] public tokenList;\n    mapping(bytes32 => Token) public tokenMapping;\n\n    modifier tokenExists(bytes32 ticker) {\n        require(\n            tokenMapping[ticker].tokenAddress != address(0),\n            \"Token does not exist\"\n        );\n        _;\n    }\n\n    function addToken(bytes32 ticker, address tokenAddress) external onlyOwner {\n        //can do a require here to make sure its not already a token.\n        //we can assign mappings properties individually or all in one shot like we are doing here\n        tokenMapping[ticker] = Token(ticker, tokenAddress);\n    }\n\n    //we need to be able to interact with the other token contracts when depositing\n    //the two things we need are the 1.)interface and 2.)address of the token contract\n    //for the interface we can import IERC20 open Zeppelin contract to make this easier\n    function deposit(uint256 amount, bytes32 ticker)\n        external\n        tokenExists(ticker)\n    {\n        //checks effects interactions, so adjust balance before the transfer\n        balances[msg.sender][ticker] = balances[msg.sender][ticker].add(amount);\n        //remember when using transferFrom we will need the \"approval\" first otherwise this will fail\n        IERC20(tokenMapping[ticker].tokenAddress).transferFrom(\n            msg.sender,\n            address(this),\n            amount\n        );\n    }\n\n    function withdraw(uint256 amount, bytes32 ticker)\n        external\n        tokenExists(ticker)\n    {\n        //then we need to check that msg.sender actaully has the balance to withdraw\n        require(balances[msg.sender][ticker] >= amount, \"Insufficient Balance\");\n        //then we need to adjust the balances to reflect withdrawal\n        balances[msg.sender][ticker] = balances[msg.sender][ticker].sub(amount);\n        //finally we are transferring from us (this contract) to msg.sender who is the rightful owner, we are just holding the tokens\n        //remember in IERC20 and ERC20 transfer takes 2 inputs, to \"to\" address and the \"amount\".\n        IERC20(tokenMapping[ticker].tokenAddress).transfer(msg.sender, amount);\n    }\n\n    function depositEth() external payable {\n        balances[msg.sender][bytes32(\"ETH\")] = balances[msg.sender][\n            bytes32(\"ETH\")\n        ].add(msg.value);\n    }\n\n    function withdrawEth(uint256 amount) external {\n        require(\n            balances[msg.sender][bytes32(\"ETH\")] >= amount,\n            \"Insuffient balance\"\n        );\n        balances[msg.sender][bytes32(\"ETH\")] = balances[msg.sender][\n            bytes32(\"ETH\")\n        ].sub(amount);\n        (bool success, ) = msg.sender.call{value: amount}(\"\");\n        require(success, \"Failed to send Ether\");\n    }\n}\n",
  "sourcePath": "/Users/josephdeangeloi/Documents/Github/Building-a-DEX/contracts/wallet.sol",
  "compiler": {
    "name": "solc",
    "version": "0.8.0+commit.c7dfd78e.Emscripten.clang"
  },
  "schemaVersion": "3.4.6",
  "updatedAt": "2022-05-06T13:45:52.507Z",
  "devdoc": {
    "kind": "dev",
    "methods": {
      "owner()": {
        "details": "Returns the address of the current owner."
      },
      "renounceOwnership()": {
        "details": "Leaves the contract without owner. It will not be possible to call `onlyOwner` functions anymore. Can only be called by the current owner. NOTE: Renouncing ownership will leave the contract without an owner, thereby removing any functionality that is only available to the owner."
      },
      "transferOwnership(address)": {
        "details": "Transfers ownership of the contract to a new account (`newOwner`). Can only be called by the current owner."
      }
    },
    "version": 1
  },
  "userdoc": {
    "kind": "user",
    "methods": {},
    "version": 1
  }
}